:100000000C9472000C947E000C947E000C947E0084
:100010000C947E000C947E000C947E000C947E0068
:100020000C947E000C947E000C947E000C947E0058
:100030000C947E000C947E000C947E000C947E0048
:100040000C947E000C947E000C947E000C947E0038
:100050000C947E000C947E000C947E000C947E0028
:100060000C947E000C947E000C947E000C947E0018
:100070000C947E000C947E000C947E000C947E0008
:100080000C947E000C947E000C947E000C947E00F8
:100090000C947E000C947E000C947E000C947E00E8
:1000A0000C947E000C947E000C947E000C947E00D8
:1000B0000C947E000C947E000C947E000C947E00C8
:1000C0000C947E000C947E000C947E000C947E00B8
:1000D0000C947E000C947E000C947E000C947E00A8
:1000E0000C947E0011241FBECFEFD1E2DEBFCDBF46
:1000F00000E00CBF0E94C0000C9402010C940000B0
:100100001092CD0087E68093CC0088E18093C900EF
:1001100086E08093CA0008958091C80087FFFCCFD5
:100120008091CE0008951092C50087E68093C400A8
:1001300088E18093C10086E08093C2000895909189
:10014000C00095FFFCCF8093C60008959C0140E05D
:1001500050E060E472E48FE090E00E94E000215003
:1001600031093093C5002093C400E1ECF0E088E150
:10017000808386E08093C2008081806280830895BE
:100180001092CD0027E62093CC0098E19093C9000F
:1001900086E08093CA001092C5002093C40090931B
:1001A000C1008093C2008091C80087FFFCCF90916E
:1001B000CE008091C00085FFFCCF9093C600F3CFA6
:1001C000A1E21A2EAA1BBB1BFD010DC0AA1FBB1F5B
:1001D000EE1FFF1FA217B307E407F50720F0A21BCD
:1001E000B30BE40BF50B661F771F881F991F1A943A
:1001F00069F760957095809590959B01AC01BD0164
:08020000CF010895F894FFCF2F
:00000001FF
